:1000000027C1000055C1000053C1000051C10000CC
:100010004FC100004DC100004BC1000049C10000AC
:1000200047C1000045C1000043C1000041C10000BC
:100030003FC100003DC100003BC1000039C10000CC
:1000400037C1000035C1000033C1000031C10000DC
:100050002FC100002DC100002BC10000E1C3000032
:1000600027C1000010C60000E5C5000021C1000046
:100070001FC100001DC100001BC1000019C100000C
:1000800017C1000015C1000013C1000011C100001C
:100090000FC100000DC100000BC1000009C100002C
:1000A00007C1000005C1000003C1000001C100003C
:1000B000FFC00000FDC00000FBC00000F9C0000050
:1000C000F7C00000F5C00000F3C00000F1C0000060
:1000D000EFC00000EDC00000EBC00000E9C0000070
:1000E000E7C00000DC02E102E602F002FA0273035C
:1000F00004030C0314031E032803320341034B03C0
:10010000730355035F036903720775076407680784
:100110006E07AC0779077D07830787078B07910771
:1001200095079907AC079F07A307A70700002000C2
:100130002300260029002C002F00320000010000BF
:1001400003010601090100002100240027002A0004
:100150002D003000330001010000040107010A01F5
:1001600000002200250028002B002E003100340062
:1001700002010000050108010B0105050505070541
:1001800008080808020202020A0A08080404040413
:10019000010101010101010103030303030303033F
:1001A000040707070C0C0C0C0C0C0C0C02020202CE
:1001B00006060606060606060B0B0B0B0B0B0B0BB7
:1001C0000102102020080810204010204080020169
:1001D000020108040201010204081020408080404E
:1001E000201008040201800402018040201008044D
:1001F00002010804020101020408102040800102EB
:1002000004081020408000000A0B02090C0D0E08A3
:1002100007030401000000000000000000000000CF
:1002200000000000000000000000000000000000CE
:10023000000012111000000000000000000000008B
:100240000000000000000000000000006A0A670AC9
:1002500011241FBECFEFD1E2DEBFCDBF00E00CBF47
:1002600026E0ACE8B2E001C01D92AB31B207E1F785
:1002700012E0A0E0B2E0E2E3FBE100E00BBF02C06D
:1002800007900D92AC38B107D9F711E0C7E2D1E081
:1002900000E006C021970109802FFE010E94490B52
:1002A000C632D10780E00807A9F7C1D60C94880DA3
:1002B000A7CE0895CF92DF92EF92FF920F931F93F4
:1002C000CF93DF936C017A018B01C0E0D0E0CE15B3
:1002D000DF0581F0D8016D918D01D601ED91FC9182
:1002E0000190F081E02DC6011995892B11F021961E
:1002F000EECF7E01C701DF91CF911F910F91FF904B
:10030000EF90DF90CF90089580E090E00895FC0199
:10031000538D448D252F30E0842F90E0821B930B6A
:10032000541710F0CF96089501970895FC01918D10
:10033000828D981761F0828DDF01A80FB11D5D9647
:100340008C91928D9F5F9F73928F90E008958FEFB5
:100350009FEF0895FC01918D828D981731F0828D69
:10036000E80FF11D858D90E008958FEF9FEF0895C0
:10037000FC01918D228D892F90E0805C9F4F821B24
:1003800091098F739927089584E495E0F1DF21E0C6
:10039000892B09F420E0822F0895FC01848DDF0170
:1003A000A80FB11DA35ABF4F2C91848D90E00196E8
:1003B0008F739927848FA689B7892C93A089B189D7
:1003C0008C91837080648C93938D848D981306C078
:1003D0000288F389E02D80818F7D80830895EF92DC
:1003E000FF920F931F93CF93DF93EC0181E0888FEF
:1003F0009B8D8C8D981305C0E889F989808185FDD6
:1004000025C0F62E0B8D10E00F5F1F4F0F731127C5
:10041000E02E8C8DE8120BC00FB607FCFACFE889EE
:10042000F989808185FFF5CFCE01B7DFF2CF8B8DC3
:10043000FE01E80FF11DE35AFF4FF0829FB7F894D9
:100440000B8FEA89FB89808180620AC09FB7F8948C
:10045000EE89FF896083E889F989808183708064EF
:1004600080839FBF81E090E0DF91CF911F910F913A
:10047000FF90EF900895CF93DF93EC01888D882350
:10048000C1F0EA89FB89808185FD05C0A889B98909
:100490008C9186FD0EC00FB607FCF5CF808185FFDD
:1004A000F2CFA889B9898C9185FFEDCFCE0175DF98
:1004B000E8CFDF91CF91089580E090E0892B19F08B
:1004C00063DF811125C080E090E0892B41F080E05E
:1004D00090E0892B21F00E94000081111CC080E077
:1004E00090E0892B41F080E090E0892B21F00E9480
:1004F0000000811113C080E090E0892BA1F080E022
:1005000090E0892B81F00E94000081110AC00895BB
:100510000E940000D8CF0E940000E1CF0E9400009E
:10052000EACF0C94000008952EE0829FC0011124B0
:10053000FC01E956FD4F80819181892B91F0118258
:1005400010821282138214821582168217821086FC
:100550001186128613861486158660E070E0CB0142
:1005600008956FEF7FEFCB0108951F93CF93DF9333
:10057000182FEB0161E01FD5209711F460E004C053
:10058000CF3FD10531F461E0812FDF91CF911F91F1
:10059000E4C4E12FF0E0EA5FFD4FE4918E2F90E09C
:1005A000FC013197E231F10508F09DC08827EE5833
:1005B000FF4F8F4F0C94490B84B5806884BDC7BD35
:1005C00097C084B5806284BDC8BD92C08091800010
:1005D000806880938000D0938900C093880088C091
:1005E00080918000806280938000D0938B00C093C4
:1005F0008A007EC080918000886080938000D093C4
:100600008D00C0938C0074C08091B000806880938E
:10061000B000C093B3006CC08091B0008062809342
:10062000B000C093B40064C0809190008068809353
:100630009000D0939900C09398005AC08091900088
:10064000806280939000D0939B00C0939A0050C02A
:1006500080919000886080939000D0939D00C0931B
:100660009C0046C08091A00080688093A00080918B
:10067000A0008F7B8093A000D093A900C093A80016
:1006800037C08091A00080628093A000D093AB001F
:10069000C093AA002DC08091A00088608093A00024
:1006A000D093AD00C093AC0023C08091200180683E
:1006B00080932001D0932901C093280119C0809113
:1006C0002001806280932001D0932B01C0932A01E6
:1006D0000FC080912001886080932001D0932D016C
:1006E000C0932C0105C0C038D1050CF04CCF46CFCB
:1006F000DF91CF911F91089560E070E0882359F059
:1007000086E033DF60918E0270E085E02EDF81E0CD
:1007100080930002089585E028DF60918E0270E0EA
:1007200086E023DF1092000208950E94520D0F937D
:100730001F93CF93DF93EC0188819981009729F073
:100740002A813B812617370788F48B016F5F7F4F23
:100750000E94720C009761F0998388831B830A833F
:100760002C813D81232B11F4FC01108281E001C01A
:1007700080E0DF91CF911F910F910895EF92FF924A
:100780000F931F93CF93DF93EC017B018A01BA0192
:10079000CEDF2881398181110DC02115310519F075
:1007A000C9010E94E90B198218821D821C821B82DA
:1007B0001A8206C01D830C83B701C9010E94670D10
:1007C000CE01DF91CF911F910F91FF90EF9008958F
:1007D000CF93DF93E3E1F2E08491EDECF1E0D4918B
:1007E000E7E8F1E0C491CC2399F0811161D3EC2FBB
:1007F000F0E0EE0FFF1FE45DFE4FA591B491EC9188
:10080000ED2391E080E009F490E0692F782F02C099
:1008100060E070E081E068278DE0DF91CF919DC3BB
:100820001F920F920FB60F9211242F933F938F9325
:100830009F93AF93BF938091400590914105A09104
:100840004205B091430530913F0523E0230F2D373A
:1008500020F40196A11DB11D05C026E8230F0296C4
:10086000A11DB11D20933F05809340059093410544
:10087000A0934205B093430580913B0590913C05C0
:10088000A0913D05B0913E050196A11DB11D80933B
:100890003B0590933C05A0933D05B0933E05BF9169
:1008A000AF919F918F913F912F910F900FBE0F901D
:1008B0001F901895FC01808191818BC7FC011182EA
:1008C000108213821282158214826115710549F01B
:1008D000FB0101900020E9F73197AF01461B570B50
:1008E0004DCF0895BF92CF92DF92EF92FF920F9378
:1008F0001F93CF93DF937C016B01EA0189012417D9
:10090000350720F48D2FE901042F182F6FE272E0D4
:10091000C701D4DFD60114968D919C911597C81705
:10092000D907B0F58017910708F48C01D601ED9135
:10093000FC911197E00FF11FB08010826D917C91B6
:100940006C0F7D1F6115710559F0FB0101900020AE
:10095000E9F73197AF01461B570BC7010FDF12C0F4
:10096000F70180819181009709F033D7D701119663
:100970001C921E9215961C921E92149713961C920E
:100980001E921297D601ED91FC91E00FF11FB082FB
:10099000C701DF91CF911F910F91FF90EF90DF90F2
:1009A000CF90BF900895CF92DF92EF92FF92CF93B6
:1009B000DF93CDB7DEB76E970FB6F894DEBF0FBEEC
:1009C000CDBF84E495E0D4DC892B09F426C184E40E
:1009D00095E0ACDC8A3009F0FFC01A8E198E1C8EAF
:1009E0001B8E1E8E1D8E6091E1057091E2056115D2
:1009F000710539F04091E5055091E605CE01499623
:100A0000BDDE6FE272E0CE01439658DF6FE272E026
:100A1000CE010D9653DF62E572E0CE0101964EDF06
:100A2000BE016F5F7F4FCE01499629D29C0140E005
:100A300050E0BE01675E7F4FCE01079653DFBE01D7
:100A4000695F7F4FCE014396E3D1CE01079632DF37
:100A5000CE0101962FDF62E572E0CE0101962EDF16
:100A6000BE016F5F7F4FCE01499609D22D8D3E8D1D
:100A7000AC014F5F5F4FBE01675E7F4FCE010796AF
:100A800031DFBE01695F7F4FCE010D96C1D1CE012E
:100A9000079610DFCE0101960DDF60E372E0CE0114
:100AA00001960CDFBE016F5F7F4FCE0143967BD175
:100AB000F82ECE010196FEDEFF20C9F085E392E01C
:100AC00018D1CE010D9665D16B017C0197FF0CC04A
:100AD0006DE284E495E083DC66277727CB016C190F
:100AE0007D098E099F095FC04AE014D161C06EE3A1
:100AF00072E0CE010196E2DEBE016F5F7F4FCE0154
:100B0000439651D1F82ECE010196D4DEFF2069F034
:100B1000CE010D963ED16B017C0160938E028091D7
:100B20000002EADD87E492E038C064E572E0CE01BD
:100B30000196C4DEBE016F5F7F4FCE01439633D175
:100B4000F82ECE010196B6DEFF2061F0CE010D96A3
:100B500020D121E0672B682B692B09F420E0822F3C
:100B6000CBDD29C06DE572E0CE010196A7DEBE01A6
:100B70006F5F7F4FCE01439616D1F82ECE010196BE
:100B800099DEFF2091F0CE010D9603D16B017C011F
:100B900070E089E0EADC86E692E0ABD0C701B601FE
:100BA0007727882799274AE0A0CF8AE792E0A1D04B
:100BB0008DE292E09ED0CE010D967CDECE01439672
:100BC00079DECE01499676DE40E050E06FE272E0D9
:100BD00081EE95E0D3DD21C089831A82E090E5059E
:100BE000F090E6058FEFE81AF80AB70181EE95E07C
:100BF0009EDD882391F02091E1053091E2058091FE
:100C0000E5059091E605BE016F5F7F4F820F931F50
:100C10005ED7F092E605E092E5056E960FB6F89481
:100C2000DEBF0FBECDBFDF91CF91FF90EF90DF9081
:100C3000CF9008951F920F920FB60F9211240BB60A
:100C40000F922F933F934F935F936F937F938F9365
:100C50009F93AF93BF93EF93FF9384E495E09DDB65
:100C6000FF91EF91BF91AF919F918F917F916F9184
:100C70005F914F913F912F910F900BBE0F900FBE40
:100C80000F901F9018951F920F920FB60F9211247C
:100C90000BB60F922F938F939F93EF93FF93E09157
:100CA0005405F09155058081E0915A05F0915B055E
:100CB00082FD12C0908180915D058F5F8F732091BE
:100CC0005E05821751F0E0915D05F0E0EC5BFA4FB4
:100CD000958F80935D0501C08081FF91EF919F9179
:100CE0008F912F910F900BBE0F900FBE0F901F9002
:100CF0001895009761F0FC0101900020E9F7319709
:100D0000AF01481B590BBC0184E495E0D3CA80E0D5
:100D100090E008958F929F92AF92BF920F931F938E
:100D2000CF93DF93CDB7DEB7A1970FB6F894DEBFB0
:100D30000FBECDBF19A2423008F44AE08E010F5D0C
:100D40001F4F842E912CA12CB12CA50194017FD48E
:100D5000E62FB901CA0101501109EA3014F4E05D2F
:100D600001C0E95CD801EC93232B242B252B69F7D8
:100D7000C801BFDFA1960FB6F894DEBF0FBECDBF8E
:100D8000DF91CF911F910F91BF90AF909F908F9067
:100D90000895FC0180819181009709F01DC460E0F5
:100DA00070E0CB010895EF92FF920F931F93CF93C2
:100DB000DF938617970721F1FC0124813581FB0120
:100DC0004481558124173507C9F4232BC9F0DC0170
:100DD0000D911C91C081D181F80181918F018823EF
:100DE00079F0082E000C990B61D67C018991082EB0
:100DF000000C990B5BD6E816F90671F380E001C090
:100E000081E0DF91CF911F910F91FF90EF900895B6
:100E10000F931F93CF93DF938C01EB01FC01808133
:100E200091810097A1F0688179816115710571F058
:100E3000428153812C813D814217530738F047D6B8
:100E40008C819D81F8019583848312C0C2D48881EE
:100E50009981F801918380838A819B819383828326
:100E60008C819D8195838483198218821B821A82CA
:100E70001D821C82DF91CF911F910F910895CF9316
:100E8000DF93FC0124813581232B69F0FB01DC0118
:100E9000CD91DC9160817181CE0120D6009719F04F
:100EA0008C1B9D0B02C08FEF9FEFDF91CF910895B8
:100EB00090E0FC013197E231F10508F04DC0882740
:100EC000EC57FF4F8F4FE5C3809180008F7703C0B1
:100ED000809180008F7D80938000089580918000B4
:100EE000877FF9CF84B58F7702C084B58F7D84BDAD
:100EF00008958091B0008F7703C08091B0008F7DFE
:100F00008093B0000895809190008F7707C0809102
:100F100090008F7D03C080919000877F8093900028
:100F200008958091A0008F7707C08091A0008F7DE9
:100F300003C08091A000877F8093A00008958091D6
:100F400020018F7707C0809120018F7D03C08091A1
:100F50002001877F8093200108951F93CF93DF9313
:100F6000282F30E0F901EA5FFD4F8491F901E05448
:100F7000FE4FD491F901E658FE4FC491CC23B9F04D
:100F8000162F811195DFEC2FF0E0EE0FFF1FE05AD6
:100F9000FE4FA591B4919FB7F894111104C08C91A4
:100FA000D095D82302C0EC91DE2BDC939FBFDF915C
:100FB000CF911F910895CF93DF9390E0FC01E0540F
:100FC000FE4F2491FC01E658FE4F8491882361F185
:100FD00090E0880F991FFC01EA5BFE4FC591D49108
:100FE000FC01E05AFE4FA591B491611109C09FB771
:100FF000F8948881209582238883EC912E230BC05E
:10100000623061F49FB7F8948881322F3095832342
:101010008883EC912E2B2C939FBF06C08FB7F8943A
:10102000E8812E2B28838FBFDF91CF91089578948C
:1010300084B5826084BD84B5816084BD85B58260DD
:1010400085BD85B5816085BD80916E00816080938E
:101050006E001092810080918100826080938100F7
:101060008091810081608093810080918000816007
:10107000809380008091B10084608093B100809162
:10108000B00081608093B000809191008260809375
:1010900091008091910081608093910080919000F7
:1010A0008160809390008091A10082608093A10074
:1010B0008091A10081608093A1008091A000816057
:1010C0008093A00080912101826080932101809112
:1010D00021018160809321018091200181608093B2
:1010E000200180917A00846080937A0080917A0058
:1010F000826080937A0080917A00816080937A0088
:1011000080917A00806880937A001092C10061E03B
:101110008DE051DFE0915405F091550582E0808328
:10112000E0915005F09151051082E0915205F09147
:10113000530580E1808310925C05E0915805F091A1
:10114000590586E08083E0915605F091570580812E
:1011500080618083E0915605F09157058081886019
:101160008083E0915605F0915705808180688083E7
:10117000E0915605F091570580818F7D8083C0E016
:101180008C2FD2D9CF5FC033D9F761E08CE013DF69
:1011900061E08EE010DF61E08BE00DDF61E08FE069
:1011A0000ADF61E08AE007DF61E089E004DF61E0F7
:1011B00087E001DF61E087E0D0DE61E082E0FBDE16
:1011C00061E083E0F8DE61E083E0C7DE61E082E0B9
:1011D000C4DE60E083E0C1DE60E082E0BEDE10924B
:1011E0008D0210928C02C0918C02D0918D0261E030
:1011F000C038D1055CF482E0B0DE60E082E0ADDEB4
:101200002196D0938D02C0938C02EDCF86E0D3DE81
:1012100061E085E0D0DE60E070E086E0A6D9609114
:101220008E0270E085E0A1D9E7E9F2E080E090E08D
:101230009C014081518101963E96452BC9F78EE075
:10124000829FF001839FF00D1124E956FD4F88EE37
:1012500093E09183808381E090E0A0E0B0E082831E
:101260009383A483B58384E690E0A0E0B0E0868316
:101270009783A087B1871286138614861586E7E9BF
:10128000F2E080E090E09C014081518101963E9621
:10129000452BC9F78EE0829FF001839FF00D11244A
:1012A000E956FD4F83ED94E0918380838BE090E0DD
:1012B000A0E0B0E082839383A483B5838AE090E0CA
:1012C000A0E0B0E086839783A087B187128613865B
:1012D000148615868AE192E00CDD8DE292E009DD4C
:1012E00001E02FB7F8948091400590914105A091BD
:1012F0004205B09143052FBF409137055091380505
:101300006091390570913A056C017D01C41AD50AC6
:10131000E60AF70AB701A6014A30510561057105D1
:1013200008F44AC08093370590933805A093390597
:10133000B0933A051092010280918F029091900231
:10134000A0919102B0919202181619061A061B0676
:10135000B4F48091930290919402A0919502B0917F
:1013600096020196A11DB11D809393029093940261
:10137000A0939502B0939602E7E9F2E014C0809141
:101380008F0290919002A0919102B09192020196E9
:10139000A11DB11D80938F0290939002A0939102A2
:1013A000B0939202E9CF80819181892B49F43E96D6
:1013B00085E0E733F807B9F7C7E9D2E010E045C0A8
:1013C00082819381A481B5810197A109B1098283AA
:1013D0009383A483B583181619061A061B063CF3DB
:1013E00082859385A485B5850196A11DB11D82874F
:1013F0009387A487B58786819781A085B1851816C4
:1014000019061A061B069CF682839383A483B58370
:10141000CECFE881F98119958A859B85AC85BD85FC
:101420000197A109B1098A879B87AC87BD878E8107
:101430009F81A885B985892B8A2B8B2B11F4812F4D
:1014400073D81F5F2E96103351F08A859B85AC852B
:10145000BD85181619061A061B06DCF2F2CF80911C
:10146000930290919402A0919502B0919602892BDB
:101470008A2B8B2BB1F40093010280918F02909103
:101480009002A0919102B09192020197A109B10935
:1014900080938F0290939002A0939102B093920256
:1014A00013C08091930290919402A0919502B09103
:1014B00096020197A109B109809393029093940237
:1014C000A0939502B09396020E945C020ACF81EE2F
:1014D00095E0F0C9CF93DF93E4E4F5E01382128244
:1014E00088EE93E0A0E0B0E084839583A683B78381
:1014F0008CE092E09183808385EC90E095878487EF
:1015000084EC90E09787868780EC90E0918B808BCD
:1015100081EC90E0938B828B82EC90E0958B848BB6
:1015200086EC90E0978B868B118E128E138E148E24
:101530006FE272E081EE95E0C1D9C7EED5E084E3B9
:10154000888385E38A8382E3898361E085E333DDF1
:1015500061E0888130DD60E089812DDD61E08A8194
:10156000FCDCEAEEF5E0168E158E10A2178E11A2A5
:1015700012A213A214A215A216A217A210A611A6B7
:1015800012A613A614A6148E89E190E0A0E0B0E0A4
:1015900080839183A283B3838CE090E0A0E0B0E0ED
:1015A00084839583A683B78310861186128613865B
:1015B00014868FEF858716861786108A118A128AFD
:1015C000138A148A158A168A178A108E118E128E23
:1015D000138EDF91CF9108951F93FC0199278827DF
:1015E000BC01E89411911032E9F3193010F01E306B
:1015F000C8F31B3249F01D3241F4689405C012D083
:10160000610F711D811D911D119110531A30B8F396
:101610003EF490958095709561957F4F8F4F9F4FC9
:101620001F910895592F482F372F262F660F771FA8
:10163000881F991F660F771F881F991F620F731FDE
:10164000841F951F660F771F881F991F0895A1E2B9
:101650001A2EAA1BBB1BFD010DC0AA1FBB1FEE1F2C
:10166000FF1FA217B307E407F50720F0A21BB30B77
:10167000E40BF50B661F771F881F991F1A9469F7F3
:1016800060957095809590959B01AC01BD01CF014F
:101690000895EE0FFF1F881F8BBF0790F691E02D76
:1016A00019940F931F93CF93DF938230910510F419
:1016B00082E090E0E0911906F0911A0620E030E017
:1016C000A0E0B0E0309719F140815181028113818F
:1016D00048175907C8F08417950769F4109731F037
:1016E00012960C93129713961C9327C00093190619
:1016F00010931A0622C02115310519F0421753071D
:1017000018F49A01BD01EF01DF01F801DBCF2115CB
:101710003105F9F0281B390B2430310580F48A811A
:101720009B816115710521F0FB019383828304C0C5
:1017300090931A0680931906FE01329644C0FE016A
:10174000E20FF31F8193919322503109398328834B
:101750003AC02091170630911806232B41F42091AE
:101760000402309105023093180620931706209149
:101770000202309103022115310541F42DB73EB725
:101780004091060250910702241B350BE091170689
:10179000F0911806E217F307A0F42E1B3F0B281751
:1017A000390778F0AC014E5F5F4F2417350748F0DA
:1017B0004E0F5F1F50931806409317068193919325
:1017C00002C0E0E0F0E0CF01DF91CF911F910F91D7
:1017D0000895CF93DF93009709F481C0FC013297FD
:1017E00013821282A0911906B0911A06109781F403
:1017F00020813181820F931F2091170630911806A6
:101800002817390751F5F0931806E093170667C0BB
:10181000ED0120E030E0CE17DF0740F44A815B8124
:101820009E0141155105F1F0EA01F5CFD383C28342
:1018300040815181840F951FC817D90759F48881B9
:101840009981840F951F0296918380838A819B8161
:10185000938382832115310529F4F0931A06E093CE
:1018600019063DC0E901FB83EA8349915991C40FF0
:10187000D51FEC17FD0761F480819181840F951FBE
:101880000296E90199838883828193819B838A836D
:10189000E0E0F0E012968D919C911397009719F07B
:1018A000FD01DC01F7CF8D919C9111979D012E5F79
:1018B0003F4F820F931F209117063091180628176B
:1018C000390769F4309729F410921A061092190614
:1018D00002C013821282B0931806A0931706DF91FC
:1018E000CF9108956F927F928F929F92AF92BF9205
:1018F000CF92DF92EF92FF920F931F93CF93DF93DC
:10190000009781F4CB01DF91CF911F910F91FF9050
:10191000EF90DF90CF90BF90AF909F908F907F908F
:101920006F90BFCEFC01E60FF71F9C0122503109DA
:10193000E217F30708F4A5C0EC01D9010D911C9141
:10194000119706171707A8F00530110508F497C07E
:10195000C80104978617970708F491C0025011092F
:10196000061B170B019311936D937C93CF0131DF0D
:1019700086C05B01A01AB10A4C01800E911EA09195
:101980001906B0911A06612C712CE12CF12C1097DC
:1019900009F446C08D919C911197A815B905B1F530
:1019A0006C0142E0C40ED11CCA14DB0478F14C0176
:1019B0008A189B08640142E0C40ED11C1296BC90A8
:1019C00012971396AC91B5E0CB16D10440F0B282D9
:1019D000A38391828082D9016D937C9309C00E5FAD
:1019E0001F4F800F911FF90191838083EB2DFA2FF8
:1019F000E114F10431F0D7011396FC93EE931297A2
:101A00003EC0F0931A06E093190639C068167906AD
:101A100008F43C017D0112960D90BC91A02DB7CF2A
:101A2000809117069091180688169906E1F46616BB
:101A30007706C8F48091020290910302009741F466
:101A40008DB79EB74091060250910702841B950BFB
:101A5000E817F907B0F4F0931806E0931706F901B8
:101A6000718360830CC0CB011CDE7C01009749F0C0
:101A7000A801BE0123D0CE01ACDEC70104C0CE0157
:101A800002C080E090E0DF91CF911F910F91FF9015
:101A9000EF90DF90CF90BF90AF909F908F907F900E
:101AA0006F90089581E090E0F89432C0911108950C
:101AB00081548A5108F4805E855A0895FB01DC0147
:101AC00002C001900D9241505040D8F70895FB019B
:101AD000DC0101900D920020E1F70895FB01519186
:101AE0005523A9F0BF01DC014D9145174111E1F7E4
:101AF00059F4CD010190002049F04D91401541115C
:101B0000C9F3FB014111EFCF81E090E00197089507
:101B100011E0C7E2D1E000E005C0802FFE01B9DD91
:101B20002196011DC832D10780E00807B1F7F8946B
:021B3000FFCFE5
:101B3200010100001B06800000000000EF015A01B5
:101B420087013B02B8019601AA012323232073795E
:101B52007374656D2073746172746564000D0A009C
:101B6200646961730072783A646961732000747207
:101B720061765F737064007472617620737065655C
:101B8200643A2000747261765F64697200636F6CFC
:101B9200725F73706400636F6C722073706565644A
:101BA2002073657420746F3A20006E6F6E20766128
:0C1BB2006C696420636F6D6D616E6400EF
:00000001FF
